:100000000C9407010C9424010C9424010C942401F9
:100010000C9424010C9461010C9424010C9424018F
:100020000C9424010C9424010C9424010C942401BC
:100030000C9424010C9424010C9424010C942401AC
:100040000C946A0C0C9424010C9424010C9424014B
:100050000C94A90B0C94670B0C9424010C942401B0
:100060000C9424010C9424010C9424010C9424017C
:100070000C9424010C9424010C9424012564002583
:1000800064004C697665733A200050726573732082
:100090006120627574746F6E20746F207374617266
:1000A0007420616761696E0047414D45204F564598
:1000B00052005072657373206120627574746F6EA4
:1000C00020746F20737461727420616761696E00BF
:1000D000436F6E67726174756C6174696F6E004313
:1000E000535345323031302F373230312070726FF8
:1000F0006A6563742062792052756964616E205765
:10010000616E6720343531323130363300417374DB
:1001100065726F6964730025640053636F72653A9A
:10012000008C018901850181017D017901750171D1
:10013000016D016901FB01F701F301EF01EB01E73B
:1001400001E301DF01DC01D801D401D001CB01C7FB
:1001500001C301BF01BA01B601B201AD01A901A4F9
:10016000019F019A01950190016492927D6C929297
:100170006D809EA0C17C92924DE4A2A29D18284859
:10018000FF4492926D468A926342FE037C92A27D66
:10019000868A92A2C3E0100E10E1C6281028C7FC80
:1001A000021C02FDF8040204F9FC0202FD8080FE3C
:1001B00080816492924DFE9098677C828A7C03FED7
:1001C0009090617C82827DFE2010FFFE403040FFD7
:1001D000FE020203FE1028C7040202FD82FE83FE17
:1001E0001010FF7C82925DFE909081FE929283FEC1
:1001F00082827D7C828245FE92926D7E90907F1BF2
:100200005B324A001B5B25643B25644800001124D7
:100210001FBECFEFD8E0DEBFCDBF11E0A0E0B1E060
:10022000E8EAF1E202C005900D92A635B107D9F7D0
:1002300022E0A6E5B1E001C01D92A63AB207E1F7BF
:100240000E9420090C94D2100C940000E8E6F0E023
:10025000808182608083D99AECE6F0E080818F60B3
:1002600080831092560108958091560118163CF52E
:10027000809157016FB7F894909156019230B4F085
:1002800021E030E091E0F901E95AFE4F4081F901A7
:10029000EA5AFE4F40839F5F292F30E0409156017C
:1002A000042E000C550B241735076CF39091560162
:1002B00091509093560166231CF4789408958FEF23
:1002C00008951F920F920FB60F9211242F933F9310
:1002D0004F935F936F937F938F939F93EF93FF93CE
:1002E00043B14F7080E090E0642F70E020915601A0
:1002F000243004F59B01082E02C0359527950A94F9
:10030000E2F720FF17C020915B0130E0082E02C009
:10031000359527950A94E2F720FD0CC0E09156012F
:1003200021E02E0F209356010E2E000CFF0BE95AF0
:10033000FE4F8083019684309105C1F640935B01A6
:10034000FF91EF919F918F917F916F915F914F916D
:100350003F912F910F900FBE0F901F90189520E1A5
:10036000829FC00111246F70862B40916901042E79
:10037000000C550B14161506C4F490916F018917E3
:1003800049F090E00AC0F901E159FE4F2081821343
:1003900004C001C090E0892F08959F5F292F30E0AD
:1003A0002417350784F38FEF08958FEF08951F9377
:1003B000CF93DF93182F909183018FEF890F482FF0
:1003C000082E000C550B292F092E000C330B2F5F24
:1003D0003F4F24173507E4F0D8E0D91BC82F8830E9
:1003E00028F4412F6D2F80E00E944B0581E08C0F97
:1003F00090918301D150482F082E000C550B292FC6
:10040000092E000C330B2F5F3F4F2417350734F7AD
:1004100067E0691B412F81E00E944B05DF91CF917E
:100420001F91089590E020916901022E000C330B7A
:10043000821793076CF4462FFC01E159FE4F80812F
:10044000982F92959F7067E0691B8F700E944B05F3
:100450000895CF9388230CF1909169018917ECF4EA
:10046000C82F60E00E9412028C2FCC0F990B409194
:100470006901242F042E000C330B215031098217FF
:10048000930744F4F901E159FE4F2081FC01E15941
:10049000FE4F2083415040936901CF91089590E031
:1004A00020916E01022E000C330B821793076CF41F
:1004B000462FFC01E659FE4F8081982F92959F7040
:1004C00067E0691B8F700E944B050895CF938823C6
:1004D00024F190916E01891704F5C82F60E00E9405
:1004E0004F0281E08C0F282F30E060916E01462F83
:1004F000062E000C550B2417350764F4F901E65954
:10050000FE4F9081319790838F5F282F30E0241722
:100510003507A4F3615060936E01CF9108954F9217
:100520005F926F927F92AF92BF92CF92DF92EF92E3
:10053000FF920F931F93CF93DF9383E08093830108
:1005400010926E01109269010FE611E00F2EF3E890
:10055000AF2EF1E0BF2EF02D0F2EFDE04F2E512CCF
:10056000612C712CF02D0E942D0D6B017C0127E078
:10057000C222DD24EE2420E8F222FF2084F481E070
:10058000C81AD108E108F108E8EFCE2ADD24DA9490
:10059000ED2CFE2CFFEFCF1ADF0AEF0AFF0A0E94B4
:1005A0002D0DA30192010E94C30CC3E0C60F6C2F56
:1005B0008C2D0E94AF018F3FB1F620E1C29EB001A9
:1005C0001124CF70C62BF801C1938F01809169016E
:1005D0008F5F80936901EA15FB0529F60E948E055D
:1005E0008FED0E94D70180916901181684F4C0E054
:1005F00060EF8C2F0E941202CF5F2C2F30E0809191
:100600006901082E000C990B281739078CF380918B
:100610006E01181684F4C0E06FE08C2F0E944F0228
:10062000CF5F2C2F30E080916E01082E000C990BCB
:10063000281739078CF3DF91CF911F910F91FF900D
:10064000EF90DF90CF90BF90AF907F906F905F90D2
:100650004F90089581110EC00E94D70180918301AF
:1006600018161CF48150809383018FED0E94D701EE
:1006700081E00895813079F480E00E94D701809173
:10068000830187301CF48F5F809383018FED0E947C
:10069000D70181E0089580E0089580916E01843053
:1006A000C4F55091830190E1599F90011124422F8C
:1006B0004260682F082E000C770B16161706B4F44C
:1006C00090916A01941739F190E00AC0F901E65956
:1006D000FE4F2081421304C09F3F41F080E0089507
:1006E0009F5F292F30E02617370784F391E0980F9A
:1006F00090936E01E82FF0E0E659FE4F90E1590229
:1007000090011124226020836FE00E944F0281E05B
:10071000089580E0089580E00895CF92DF92EF92EF
:10072000FF921F93CF93DF93CAE6D1E00E942D0D75
:100730006B017C0127E0C222DD24EE2420E8F222B6
:10074000FF2084F481E0C81AD108E108F10898EF8D
:10075000C92ADD24DA94ED2CFE2C2FEFC21AD20A1E
:10076000E20AF20A1C2D6FE08C2D0E94AF018F3F30
:1007700011F120E1C29EC0011124382F3F60409149
:100780006E01042E000C550B14161506A4F4888176
:10079000831761F220E009C0FC01E659FE4F808119
:1007A000381303C02F3F11F606C02F5F822F90E051
:1007B000841795078CF380916901E82F082E000CAF
:1007C000FF0BE159FE4F90E1199F900111242F601A
:1007D00020838F5F809369016FE0812F0E94AF01BA
:1007E00060EF0E941202DF91CF911F91FF90EF9076
:1007F000DF90CF9008951F93CF93DF9380916E0188
:1008000018163CF5D0E0ED2F0D2E000CFF0BE6592D
:10081000FE4F6081162F12951F70C62FCF706C2F60
:10082000812F0E94AF018F3F79F08D2F0E946602C9
:100830006C2F812F0E94AF010E94290281E090E07D
:100840000E9442090E948D03DF5F80916E01D817DC
:10085000D4F2DF91CF911F910895CF9380916901D8
:1008600018160CF040C0C0E0EC2F0C2E000CFF0B53
:10087000E159FE4F208130E080918301082E000C69
:10088000990BAC0142955295507F5427407F5427D5
:10089000416024173507B1F0AC0141505109429530
:1008A0005295507F5427407F54272417350751F025
:1008B000019682959295907F9827807F9827281798
:1008C000390761F48C2F0E94290281E090E00E9498
:1008D000D0050E948D038FE00E94D701CF5F8091E9
:1008E0006901C8170CF2CF910895FF920F931F93DF
:1008F000CF93DF93D0E022C00D2F0D2E000C110BF3
:10090000F801E659FE4FF080CF2DCF70CF5FC03198
:1009100021F48D2F0E94660211C060E08D2F0E948D
:100920004F02F801E659FE4F8F2D807FCF70C82B04
:10093000C0836FE08D2F0E944F02DF5F80916E01B8
:10094000D817D4F2DF91CF911F910F91FF900895A6
:10095000FF920F931F93CF93DF9380916901181635
:100960000CF07CC0C0E0D0E010E0FE01E159FE4F89
:100970006081462F50E080918301082E000C990B76
:100980009C0122953295307F3227207F32272160CB
:1009900042175307B1F09C0121503109229532953D
:1009A000307F3227207F32274217530751F00196BC
:1009B00082959295907F9827807F982748175907AE
:1009C00069F4812F0E94290281E090E00E94D00505
:1009D0000E948D038FE00E94D70131C0862F8F7057
:1009E000F82E21F0062F02950F7015C00E942D0DD4
:1009F000DC01CB0187709927AA27B078BB2354F478
:100A00000197A109B109886F9F6FAF6FBF6F019602
:100A1000A11DB11D082F60E0812F0E941202C15953
:100A2000DE4F6FEF6F0D862F8F7090E1099FB00141
:100A30001124682B688360EF812F0E9412028FEDD2
:100A40000E94D7011F5FC12FD0E080916901082E5D
:100A5000000C990BC817D9070CF487CFDF91CF9101
:100A60001F910F91FF9008950E943A06672B682B03
:100A7000692B51F00E943A0621E064367105810528
:100A8000910518F420E001C021E0822F089580E84C
:100A90000E94FC0B08951F93CF93DF938031B0F435
:100AA0006830A0F4142FC62FD82F81E00E94240CA8
:100AB0006C2F677080E1689F900111248D2F8F70DB
:100AC000822B0E94240C812F0E94240CDF91CF9155
:100AD0001F9108950F931F93CF93DF93803190F46C
:100AE0008B01C82F83E00E94240C8C2F8F700E94F2
:100AF000240CE801085F1F4F89910E94240CC01745
:100B0000D107D1F7DF91CF911F910F91089584E024
:100B10000E94240C82E00E94240C08958FE00E9421
:100B2000240C089588E781B982B1886782B964E1AD
:100B300070E082E390E00E942A0C82E890E09F93AC
:100B40008F930E94C20D84E090E0A0E0B0E080931B
:100B5000840190938501A0938601B093870164E19D
:100B600070E089E390E00E942A0C809187018F93C6
:100B7000809186018F93809185018F93809184016C
:100B80008F938FE790E09F938F930E94C20D8DB754
:100B90009EB708960FB6F8949EBF0FBE8DBF0895FE
:100BA0004091840150918501609186017091870187
:100BB000481B590B610971094093840150938501C9
:100BC000609386017093870164E170E089E390E0AF
:100BD0000E942A0C809187018F93809186018F93C8
:100BE000809185018F93809184018F938CE790E0B1
:100BF0009F938F930E94C20D0F900F900F900F90B4
:100C00000F900F908091840190918501A0918601B1
:100C1000B09187010397A105B10511F480E782B96E
:100C20008091840190918501A0918601B091870106
:100C30000297A105B10511F480E382B98091840186
:100C400090918501A0918601B09187010197A1053E
:100C5000B10511F480E282B98091840190918501FF
:100C6000A0918601B0918701892B8A2B8B2B09F4E7
:100C700012B8089560918401709185018091860178
:100C80009091870108950E9447050E94260140E047
:100C900060E07BE480E090E00E94140B0E94440C32
:100CA000789408950E943B0C6AE070E08AE090E03E
:100CB0000E942A0C8DE091E09F938F930E94C20DB9
:100CC0006CE070E08AE090E00E942A0C8FED90E0EA
:100CD0009F938F930E94C20D0E948E050F900F90DC
:100CE0000F900F9060EF8DE191E00E94DD090DC043
:100CF0002FE789EA93E0215080409040E1F700C05F
:100D000000000E9434018F3F29F40E94EC098111F8
:100D1000EFCFE8CF089540E060E07BE480E090E032
:100D20000E94140B789480E480937C0086E8809382
:100D30007A000E948F020E943B0C0E942B090E94A5
:100D400092050E9434010E94620B08956EE070E0EB
:100D50008AE090E00E942A0C80ED90E09F938F93B0
:100D60000E94C20D6FE070E08AE090E00E942A0CC1
:100D700082EB90E09F938F930E94C20D0E948E059C
:100D80000F900F900F900F9060EF8CE391E00E9416
:100D9000DD0910C02FE789EA93E0215080409040A0
:100DA000E1F700C000000E9434018F3F19F00E945B
:100DB0008B0608950E94EC098111ECCFE5CF6EE01F
:100DC00070E08AE090E00E942A0C88EA90E09F930D
:100DD0008F930E94C20D6FE070E08AE090E00E9465
:100DE0002A0C8AE890E09F938F930E94C20D0E9484
:100DF0008E050F900F900F900F9063E18BE491E0C0
:100E00000E94DD0910C02FE789EA93E0215080405D
:100E10009040E1F700C000000E9434018F3F19F0BC
:100E20000E948B0608950E94EC098111ECCFE5CF5A
:100E30002F923F924F925F926F927F928F929F92EA
:100E4000AF92BF92CF92DF92EF92FF920F931F93D8
:100E5000CF93DF93CDB7DEB761970FB6F894DEBFBF
:100E60000FBECDBF0E945C0C6B017C010E945C0C2C
:100E70006E837F83888799870E945C0C6A877B8753
:100E80008C879D870E945C0C6E877F87888B998BEF
:100E90000E945C0C2B013C01C982DA82EB82FC824D
:100EA000212C1D82312C0FEF77C1311006C0ECE7E9
:100EB000F0E080818E7F808305C0ECE7F0E08081E8
:100EC00081608083EAE7F0E0808180648083EAE7E4
:100ED000F0E0808186FDFBCFE8E7F0E08081918142
:100EE000311045C08039F1E09F07F8F40E945C0C96
:100EF0004B015C010E943405811140C08A859B85AD
:100F0000AC85BD85845D9E4FAF4FBF4F8816990657
:100F1000AA06BB0698F1211031C080E00E942A0386
:100F20008A869B86AC86BD8629C08935924030F181
:100F30000E945C0C4B015C010E94340581111EC0B3
:100F40008E859F85A889B989845D9E4FAF4FBF4F1D
:100F500088169906AA06BB0688F021100FC081E00A
:100F60000E942A038E869F86A88AB98A07C0805964
:100F70009140893C910510F00E944D0381E0382694
:100F80000E943401182F8F3F09F028C10E945B0B8B
:100F9000882309F45CC0E0EAF2E0808191810E943C
:100FA000840DFD81F11105C08B3109F411C1902F21
:100FB0000DC02D81213029F48B3509F40CC1902FFF
:100FC00005C09D81923029F4982F802F943411F41C
:100FD00007C0902F282F2F7D2C3479F41D8204C058
:100FE0001D8202C0902F802F211004C080E00E943B
:100FF0002A032DC0123011F4F7C01D82913411F074
:10100000803231F4211004C00E944D03212C1FC0F6
:10101000113011F0923429F42110E9C00E948B069E
:1010200016C0112341F0933431F0982F9F7D9235F3
:1010300009F4E1C007C0211005C081E00E942A0325
:10104000212C05C08F7D803511F481E028260E9477
:101050005C0C4B015C010E943405811112C0D3016C
:10106000C2010A96A11DB11D88169906AA06BB06E3
:1010700040F0211006C00E94FB030E942D042601AF
:1010800037010E945C0C4B015C010E9474096031C5
:10109000710581059105D8F40E94340581115FC066
:1010A0008E819F81A885B98584529A4FAF4FBF4FDB
:1010B00088169906AA06BB0608F451C021104FC035
:1010C0000E94A804CE82DF82E886F98648C00E948A
:1010D0007409603171058105910508F10E94740958
:1010E0006D33710581059105D0F40E94340581119D
:1010F00036C08E819F81A885B98588519C4FAF4F9E
:10110000BF4F88169906AA06BB0648F1211027C0D2
:101110000E94A804CE82DF82E886F98620C00E9461
:1011200074096D33710581059105C8F00E9434057D
:10113000811115C08E819F81A885B9858C509E4FE5
:10114000AF4FBF4F88169906AA06BB0640F0211084
:1011500006C00E94A804CE82DF82E886F9860E943B
:101160005C0C6B017C010E943405811115C08981E2
:101170009A81AB81BC818C509E4FAF4FBF4FC81638
:10118000D906EA06FB0640F0211006C00E9475044D
:10119000C982DA82EB82FC820E943405882309F43A
:1011A00084CE0E943405813091F50E943A06672B67
:1011B000682B692B19F40E94DF0629C00E943A06A9
:1011C000633671058105910510F10E94A6061FC0C6
:1011D000E1E0ED833CCFF2E0FD8339CF833009F4C9
:1011E00001CF0CC0902F802F211014CF0DCF1123D1
:1011F00009F428CF08C021102ACF1FCF823091F3E5
:10120000902F802F05CF933409F00FCF1BCF61961D
:101210000FB6F894DEBF0FBECDBFDF91CF911F9107
:101220000F91FF90EF90DF90CF90BF90AF909F9085
:101230008F907F906F905F904F903F902F90089588
:101240000E9443060E9452060E948B060E941807C5
:101250000E94DF06F9CF6AE070E082E390E00E942E
:101260002A0C8AE191E09F938F930E94C20D109205
:1012700088011092890110928A0110928B010F90BF
:101280000F900895CF92DF92EF92FF92C090880165
:10129000D0908901E0908A01F0908B01C80ED91E90
:1012A000E11CF11CC0928801D0928901E0928A0170
:1012B000F0928B016AE070E089E390E00E942A0CD2
:1012C0000C2C000CDD08DF92CF9287E191E09F9318
:1012D0008F930E94C20D0F900F900F900F90FF9070
:1012E000EF90DF90CF90089560918801709189010F
:1012F00080918A0190918B010895CF92DF92EF92B5
:10130000FF928FEF87B984E08AB96091880170916C
:10131000890180918A0190918B016A307105810564
:101320009105A8F41BB860918801709189018091A2
:101330008A0190918B012AE030E040E050E00E9469
:10134000A10CFB01EC5FFE4F808188B931C0209178
:101350005C0121110CC02AE030E040E050E00E9426
:10136000A10CFB01EC5FFE4F808188B916C00F2EE7
:10137000FAE0CF2ED12CE12CF12CF02DA701960113
:101380000E94A10CCA01B901A70196010E94A10CFB
:10139000FB01EC5FFE4F808188B980915C01880F72
:1013A000880F8BB990915C0181E0892780935C0163
:1013B000FF90EF90DF90CF90089560930E0190938F
:1013C000610180936001109263011092620110929A
:1013D0005F0110925E0108950F931F93CF93DF93E7
:1013E000CDB7DEB728970FB6F894DEBF0FBECDBFDE
:1013F000E0916201F0916301309781F0149110FF48
:1014000006C0109263011092620100E06BC0319639
:10141000F0936301E093620100E064C0E0915E013B
:10142000F0915F01309709F449C0CF010196909384
:101430005F0180935E01E081E1110AC010925F01BB
:1014400010925E0180E180935D0100E010E04AC0EF
:101450008FE98E0F8A3170F4F0E0EE0FFF1FED5828
:10146000FF4F85919491909363018093620100E016
:1014700010E038C08FEB8E0F8A3170F4F0E0EE0F81
:10148000FF1FED54FF4F85919491909363018093DA
:10149000620100E010E026C080ED8E0F8A3000F57A
:1014A000F0E0EE0FFF1FEF53FF4F85919491909363
:1014B00063018093620100E010E014C0809160013C
:1014C0009091610101E0009709F000E090935F01C5
:1014D00080935E01109261011092600110E002C0E1
:1014E00000E010E00E94870520910E01FE01389671
:1014F000CE010196112314F4208301C01082110F34
:101500003197E817F907B1F71982BE016F5F7F4F76
:101510008FE00E946A0580915D01882389F08150E7
:1015200080935D01002311F0882311F090E003C047
:1015300091E001C091E081E0992329F080E003C0AF
:101540000023A1F3F7CF28960FB6F894DEBF0FBEA5
:10155000CDBFDF91CF911F910F910895CF93C82FE9
:101560008A3019F48DE00E94AE0A9FB7907802C0CD
:10157000992329F180918D018F3FD1F3F894E09167
:101580008C0181E08E0F80938C01F0E0E257FE4FDA
:10159000C08380918D018F5F80938D0180918C013C
:1015A0008F3F11F410928C01E1ECF0E080818062B9
:1015B0008083992339F0789480E090E005C081E041
:1015C00090E002C080E090E0CF91089580919F026A
:1015D0008823E1F32FB72078F89480918D02309121
:1015E0009F0290E0831B91095AF4E0918D02809153
:1015F0009F02F0E0E81BF109E256FD4F80810AC02E
:10160000E0918D0280919F02F0E0E81BF109E25722
:10161000FD4F808190919F02915090939F022223D1
:1016200009F0789490E0089510928C0110928D0149
:1016300010928D0210929F0210929E0240936401BC
:10164000DC01CB01880F991FAA1FBB1F880F991FB0
:10165000AA1FBB1F9C01AD01220F331F441F551F42
:1016600060E072E18AE790E00E94C30CBA01A90130
:101670004F5F5F4F6F4F7F4FDB01CA011AF4019636
:10168000A11DB11DB595A795979587950197909345
:10169000C5008093C400E1ECF0E088E180838081A4
:1016A00080688083E0EAF2E08FE091E093838283B8
:1016B00091838083089590919F0281E0911101C0F0
:1016C00080E0089510928D0210929F0208951F925B
:1016D0000F920FB60F9211242F938F939F93EF9336
:1016E000FF9380918D01882329F180918C012091B5
:1016F0008D0190E0821B91095AF4E0918C01809158
:101700008D01F0E0E81BF109E357FD4F90810AC01D
:10171000E0918C0180918D01F0E0E81BF109E25726
:10172000FE4F908180918D01815080938D01909327
:10173000C60005C0E1ECF0E080818F7D8083FF91E1
:10174000EF919F918F912F910F900FBE0F901F904F
:1017500018951F920F920FB60F9211242F933F935B
:101760004F935F936F937F938F939F93AF93BF93A9
:10177000CF93EF93FF93C091C600809164018823BB
:1017800049F080918D018F3F29F060E070E08C2F4F
:101790000E94AE0A80919F02803120F081E0809308
:1017A0009E0218C0CD3009F4CAE0E0918D0281E0BC
:1017B0008E0F80938D02F0E0E257FD4FC083809141
:1017C0009F028F5F80939F0280918D02803111F480
:1017D00010928D02FF91EF91CF91BF91AF919F91A8
:1017E0008F917F916F915F914F913F912F910F90CA
:1017F0000FBE0F901F90189594B1906B94B92C9ACE
:1018000090E59CBD883021F0803211F0823019F4CF
:1018100091E09DBD01C01DBC803269F028F4883084
:1018200071F0803161F00EC0803429F0803851F4BD
:101830008CB581608CBD8CB582608CBD03C08CB5CD
:1018400081608CBD2C9808958EBD0DB407FEFDCF30
:101850008EB508959F938F937F936F9384E092E06A
:101860009F938F930E94C20D0F900F900F900F9037
:101870000F900F9008958FEF91E09F938F930E94A8
:10188000C20D0F900F90089510926501109266019D
:10189000109267011092680116BC8CE787BD82E048
:1018A00084BD83E085BDEEE6F0E0808182608083C8
:1018B00085B3827085BB08952FB7F8946091650158
:1018C00070916601809167019091680122230CF468
:1018D000789408951F920F920FB60F9211242F93B0
:1018E0003F934F935F936F937F938F939F93AF93A8
:1018F000BF93EF93FF938091650190916601A09152
:101900006701B09168010196A11DB11D8093650129
:1019100090936601A0936701B09368010E947D09CE
:10192000FF91EF91BF91AF919F918F917F916F91B7
:101930005F914F913F912F910F900FBE0F901F908D
:101940001895A1E21A2EAA1BBB1BFD010DC0AA1FF0
:10195000BB1FEE1FFF1FA217B307E407F50720F018
:10196000A21BB30BE40BF50B661F771F881F991F93
:101970001A9469F760957095809590959B01AC01DC
:10198000BD01CF010895052E97FB1EF400940E941F
:10199000DA0C57FD07D00E94A10C07FC03D04EF4CF
:1019A0000C94DA0C50954095309521953F4F4F4F50
:1019B0005F4F089590958095709561957F4F8F4FFB
:1019C0009F4F08958F929F92AF92BF92CF92DF92D6
:1019D000EF92FF92CF93DF93EC01688179818A8146
:1019E0009B81611571058105910521F464E279ED12
:1019F0008BE597E02DE133EF41E050E00E94C30C0E
:101A000049015A019B01AC01A7EAB1E40E94791097
:101A10006B017C01ACEEB4EFA50194010E9487102C
:101A2000DC01CB018C0D9D1DAE1DBF1DB7FF03C09A
:101A30000197A109B04888839983AA83BB83BC011D
:101A4000CD019F77DF91CF91FF90EF90DF90CF9006
:101A5000BF90AF909F908F9008958F929F92AF927A
:101A6000BF92CF92DF92EF92FF926091000170914E
:101A700001018091020190910301611571058105B9
:101A8000910521F464E279ED8BE597E02DE133EFE8
:101A900041E050E00E94C30C49015A019B01AC0196
:101AA000A7EAB1E40E9479106B017C01ACEEB4EFBF
:101AB000A50194010E948710DC01CB018C0D9D1DB6
:101AC000AE1DBF1DB7FF03C00197A109B0488093A9
:101AD000000190930101A0930201B0930301BC01A6
:101AE000CD019F77FF90EF90DF90CF90BF90AF90A8
:101AF0009F908F90089560930001709301018093EF
:101B00000201909303010895CF93DF93EC012B81A1
:101B100020FF33C026FF0AC02F7B2B838E819F813D
:101B200001969F838E838A8190E029C022FF0FC097
:101B3000E881F9818081082E000C990B009719F437
:101B400020622B831AC03196F983E8830EC0EA85A0
:101B5000FB85099597FF09C02B81019611F080E262
:101B600001C080E1822B8B8308C02E813F812F5FD3
:101B70003F4F3F832E83992702C08FEF9FEFDF9166
:101B8000CF910895A0E0B0E0E8ECFDE00C949A104D
:101B9000AE01495F5F4FDA016D917D91AD0100EAC1
:101BA00012E0F80182819381DC0113962C91139746
:101BB000286013962C930E94E80DD8011296ED919F
:101BC000FC9113972381277F2383E4E00C94B610C4
:101BD000ABE0B0E0EEEEFDE00C948C106C017B010C
:101BE0008A01FC0117821682838181FFCCC1CE015C
:101BF00001963C01F6019381F70193FD859193FFD6
:101C000081917F01882309F4BAC1853239F493FDAB
:101C1000859193FF81917F01853229F4B60190E08F
:101C20000E94DF0FE7CF912C212C312CFFE1F3151F
:101C3000D8F08B3279F038F4803279F08332A1F425
:101C4000232D20611DC08D3261F0803369F4232D76
:101C5000216016C0832D8260382EE32DE4603E2E75
:101C60002AC0F32DF8601DC037FC2DC020ED280FD1
:101C70002A3040F08E32B9F436FC81C1232D206425
:101C8000322E19C036FE06C08AE0989E200D11241F
:101C9000922E11C0EAE02E9E200D1124222EF32D4B
:101CA000F0623F2E08C08C3621F4832D8068382ED8
:101CB00002C0883641F4F70193FD859193FF81912D
:101CC0007F018111B3CF982F9F7D9554933028F4D5
:101CD0000C5F1F4F9FE399830DC0833631F083372C
:101CE00071F0833509F059C021C0F80180818983E2
:101CF0000E5F1F4F88248394912C530113C0280139
:101D0000F2E04F0E511CF801A080B18036FE03C0F6
:101D1000692D70E002C06FEF7FEFC5010E94D40F04
:101D20004C018201F32DFF773F2E16C0280122E0DF
:101D3000420E511CF801A080B18036FE03C0692D0F
:101D400070E002C06FEF7FEFC5010E94C90F4C0128
:101D5000F32DF0683F2E820133FC1BC0822D90E0F2
:101D600088169906B0F4B60180E290E00E94DF0F79
:101D70002A94F4CFF50137FC859137FE81915F01FC
:101D8000B60190E00E94DF0F21102A9421E0821A10
:101D900091088114910471F7E8C0843611F08936F6
:101DA00041F5F80137FE07C060817181828193811E
:101DB0000C5F1F4F08C060817181072E000C880BDB
:101DC000990B0E5F1F4FF32DFF763F2E97FF09C033
:101DD00090958095709561957F4F8F4F9F4FF068DC
:101DE0003F2E2AE030E0A3010E941B10882E8618A7
:101DF00045C0853731F4232D2F7EB22E2AE030E006
:101E000025C0932D997FB92E8F36C1F018F48835EF
:101E100079F0B5C0803719F0883721F0B0C0E92FCC
:101E2000E061BE2EB4FE0DC0FB2DF460BF2E09C0D4
:101E300034FE0AC0292F2660B22E06C028E030E00A
:101E400005C020E130E002C020E132E0F801B7FE39
:101E500007C060817181828193810C5F1F4F06C032
:101E60006081718180E090E00E5F1F4FA3010E94AE
:101E70001B10882E8618FB2DFF773F2E36FE0DC0D7
:101E8000232D2E7FA22E891458F434FE0BC032FC71
:101E900009C0832D8E7EA82E05C0B82CA32C03C0AC
:101EA000B82C01C0B92CA4FE0FC0FE01E80DF11D35
:101EB0008081803321F49A2D997EA92E09C0A2FE3B
:101EC00006C0B394B39404C08A2D867809F0B39405
:101ED000A3FC11C0A0FE06C0B21488F4280C922CFA
:101EE0009B180EC0B21460F4B60180E290E00E942C
:101EF000DF0FB394F7CFB21418F42B1802C0982C4C
:101F0000212CA4FE10C0B60180E390E00E94DF0FF8
:101F1000A2FE17C0A1FC03C088E790E002C088E5DC
:101F200090E0B6010CC08A2D867859F0A1FE02C05F
:101F30008BE201C080E2A7FC8DE2B60190E00E9436
:101F4000DF0F891438F4B60180E390E00E94DF0FC0
:101F50009A94F7CF8A94F301E80DF11D8081B601C0
:101F600090E00E94DF0F8110F5CF222009F442CECD
:101F7000B60180E290E00E94DF0F2A94F6CFF601CE
:101F80008681978102C08FEF9FEF2B96E2E10C9440
:101F9000A810FC010590615070400110D8F78095A1
:101FA00090958E0F9F1F0895FC0161507040019025
:101FB0000110D8F7809590958E0F9F1F08950F936D
:101FC0001F93CF93DF93FB01238121FD03C08FEF8C
:101FD0009FEF2CC022FF16C0468157812481358196
:101FE0004217530744F4A081B1819D012F5F3F4FF9
:101FF000318320838C93268137812F5F3F4F378336
:10200000268314C08B01EC01FB010084F185E02DD7
:102010000995892BE1F6D80116968D919C91179719
:10202000019617969C938E931697CE01DF91CF91D0
:102030001F910F910895FA01AA27283051F12031FC
:1020400081F1E8946F936E7F6E5F7F4F8F4F9F4F4C
:10205000AF4FB1E03ED0B4E03CD0670F781F891F8E
:102060009A1FA11D680F791F8A1F911DA11D6A0F5C
:10207000711D811D911DA11D20D009F468943F910F
:102080002AE0269F11243019305D3193DEF6CF010E
:102090000895462F4770405D4193B3E00FD0C9F7D4
:1020A000F6CF462F4F70405D4A3318F0495D31FD41
:1020B0004052419302D0A9F7EACFB4E0A695979594
:1020C000879577956795BA95C9F70097610571056A
:1020D00008959B01AC010A2E0694579547953795B4
:1020E0002795BA95C9F7620F731F841F951FA01D0E
:1020F00008950E94C310A59F900DB49F900DA49FBA
:10210000800D911D11240895B7FF0C9479100E9441
:102110007910821B930B08952F923F924F925F92FA
:102120006F927F928F929F92AF92BF92CF92DF92E7
:10213000EF92FF920F931F93CF93DF93CDB7DEB74C
:10214000CA1BDB0B0FB6F894DEBF0FBECDBF0994E0
:102150002A88398848885F846E847D848C849B8437
:10216000AA84B984C884DF80EE80FD800C811B8145
:10217000AA81B981CE0FD11D0FB6F894DEBF0FBE74
:10218000CDBFED010895A29FB001B39FC001A39FF1
:10219000700D811D1124911DB29F700D811D1124A0
:0821A000911D0895F894FFCF92
:1021A800010000003F065B4F666D7D077F6F0F00E3
:1021B80000000300000000AE0AE60A000041535484
:1021C80045524F4944532052756964616E205761E6
:1021D8006E6720343531323130363300436F6E67E5
:1021E800726174756C6174696F6E0047414D45206A
:0621F8004F5645520000A5
:00000001FF
